:020000020000FC
:100000004AC07E306D79335B5F707F7B0F930FEF5B
:1000100007BB04BB002708BB05BBD89AD098D99A68
:10002000D198D29AD39A92988A980F910895F1E034
:10003000E0E0022F203019F031960A95E9F70081AF
:1000400005BB16E1032FF1E0E0E0003009F408956C
:1000500031960651E9F7008108BB08950F931F936D
:10006000DA98293031F023950E9417000F911F91E3
:10007000089520E0303539F006E1300F0E94170076
:100080000F911F91089530E038BBDA9A0E94170053
:100090000F911F91089504E00EBF0FE50DBF0E9460
:1000A00006000E946700F1E0E0E0008108BB0081EB
:1000B00005BB00EF00FDDB9A00FFDB980295C899B5
:1000C000F2CFC999F7CF82990E942E00F3CF0F93F8
:1000D0001F93F0E0E2E0B1E0A0E00AE015911D938B
:0A00E0000A95E1F71F910F910895B2
:00000001FF
