:020000020000FC
:1000000032C07E306D79335B5F707F7B0F930FEF73
:1000100007BB04BB002708BB05BBD89AD098D99A68
:10002000D198D29AD39A92988A980F9108950F9363
:1000300003B30B3729F00D91DA9805BB0F91F7CF79
:10004000B1E0A0E001910F3529F008BB002705BB06
:100050000F91EDCF002708BB05BBF1E0E0E0D89B96
:10006000DA9A0F91E4CF04E00EBF0FE50DBF0E94B6
:1000700006000E944B00B1E0A0E0F1E0E0E0019159
:1000800008BB0D9105BBC899F6CFC999FCCF829BDF
:100090000E943300F8CF0F931F93F0E0E2E0B1E04D
:1000A000A0E00AE015911D930A95E1F71F910F91C9
:0200B0000895B1
:00000001FF
